{
  "_format": "hh-sol-artifact-1",
  "contractName": "WavePortal",
  "sourceName": "contracts/WavePortal.sol",
  "abi": [
    {
      "inputs": [],
      "stateMutability": "payable",
      "type": "constructor"
    },
    {
      "anonymous": false,
      "inputs": [
        {
          "indexed": true,
          "internalType": "address",
          "name": "from",
          "type": "address"
        },
        {
          "indexed": false,
          "internalType": "uint256",
          "name": "timestamp",
          "type": "uint256"
        },
        {
          "indexed": false,
          "internalType": "string",
          "name": "groupName",
          "type": "string"
        },
        {
          "indexed": false,
          "internalType": "uint256",
          "name": "id",
          "type": "uint256"
        }
      ],
      "name": "NewGroup",
      "type": "event"
    },
    {
      "anonymous": false,
      "inputs": [
        {
          "indexed": true,
          "internalType": "address",
          "name": "from",
          "type": "address"
        },
        {
          "indexed": true,
          "internalType": "uint256",
          "name": "groupId",
          "type": "uint256"
        },
        {
          "indexed": false,
          "internalType": "uint256",
          "name": "timestamp",
          "type": "uint256"
        },
        {
          "indexed": false,
          "internalType": "string",
          "name": "message",
          "type": "string"
        }
      ],
      "name": "NewWave",
      "type": "event"
    },
    {
      "inputs": [
        {
          "internalType": "string",
          "name": "groupName",
          "type": "string"
        }
      ],
      "name": "createGroup",
      "outputs": [],
      "stateMutability": "nonpayable",
      "type": "function"
    },
    {
      "inputs": [],
      "name": "getAllGroups",
      "outputs": [
        {
          "components": [
            {
              "internalType": "uint256",
              "name": "groupId",
              "type": "uint256"
            },
            {
              "internalType": "string",
              "name": "groupName",
              "type": "string"
            },
            {
              "internalType": "uint256",
              "name": "timestamp",
              "type": "uint256"
            }
          ],
          "internalType": "struct WavePortal.Group[]",
          "name": "",
          "type": "tuple[]"
        }
      ],
      "stateMutability": "view",
      "type": "function"
    },
    {
      "inputs": [
        {
          "internalType": "uint256",
          "name": "groupId",
          "type": "uint256"
        }
      ],
      "name": "getAllWaves",
      "outputs": [
        {
          "components": [
            {
              "internalType": "address",
              "name": "waver",
              "type": "address"
            },
            {
              "internalType": "string",
              "name": "message",
              "type": "string"
            },
            {
              "internalType": "uint256",
              "name": "timestamp",
              "type": "uint256"
            }
          ],
          "internalType": "struct WavePortal.Wave[]",
          "name": "",
          "type": "tuple[]"
        }
      ],
      "stateMutability": "view",
      "type": "function"
    },
    {
      "inputs": [],
      "name": "groupAmount",
      "outputs": [
        {
          "internalType": "uint256",
          "name": "",
          "type": "uint256"
        }
      ],
      "stateMutability": "view",
      "type": "function"
    },
    {
      "inputs": [
        {
          "internalType": "uint256",
          "name": "",
          "type": "uint256"
        }
      ],
      "name": "groups",
      "outputs": [
        {
          "internalType": "uint256",
          "name": "groupId",
          "type": "uint256"
        },
        {
          "internalType": "string",
          "name": "groupName",
          "type": "string"
        },
        {
          "internalType": "uint256",
          "name": "timestamp",
          "type": "uint256"
        }
      ],
      "stateMutability": "view",
      "type": "function"
    },
    {
      "inputs": [
        {
          "internalType": "address",
          "name": "",
          "type": "address"
        }
      ],
      "name": "lastWavedAt",
      "outputs": [
        {
          "internalType": "uint256",
          "name": "",
          "type": "uint256"
        }
      ],
      "stateMutability": "view",
      "type": "function"
    },
    {
      "inputs": [
        {
          "internalType": "string",
          "name": "_message",
          "type": "string"
        },
        {
          "internalType": "uint256",
          "name": "groupId",
          "type": "uint256"
        }
      ],
      "name": "wave",
      "outputs": [],
      "stateMutability": "nonpayable",
      "type": "function"
    },
    {
      "inputs": [],
      "name": "waveId",
      "outputs": [
        {
          "internalType": "uint256",
          "name": "",
          "type": "uint256"
        }
      ],
      "stateMutability": "view",
      "type": "function"
    },
    {
      "inputs": [
        {
          "internalType": "uint256",
          "name": "",
          "type": "uint256"
        },
        {
          "internalType": "uint256",
          "name": "",
          "type": "uint256"
        }
      ],
      "name": "waves",
      "outputs": [
        {
          "internalType": "address",
          "name": "waver",
          "type": "address"
        },
        {
          "internalType": "string",
          "name": "message",
          "type": "string"
        },
        {
          "internalType": "uint256",
          "name": "timestamp",
          "type": "uint256"
        }
      ],
      "stateMutability": "view",
      "type": "function"
    }
  ],
  "bytecode": "0x60806040526200004f6040518060400160405280601981526020017f57652068617665206265656e20636f6e737472756374656421000000000000008152506200007760201b62000b761760201c565b606444426200005f9190620001c4565b6200006b919062000261565b60008190555062000308565b62000117816040516024016200008e919062000184565b6040516020818303038152906040527f41304fac000000000000000000000000000000000000000000000000000000007bffffffffffffffffffffffffffffffffffffffffffffffffffffffff19166020820180517bffffffffffffffffffffffffffffffffffffffffffffffffffffffff83818316178352505050506200011a60201b60201c565b50565b60008151905060006a636f6e736f6c652e6c6f679050602083016000808483855afa5050505050565b60006200015082620001a8565b6200015c8185620001b3565b93506200016e8185602086016200022b565b6200017981620002f7565b840191505092915050565b60006020820190508181036000830152620001a0818462000143565b905092915050565b600081519050919050565b600082825260208201905092915050565b6000620001d18262000221565b9150620001de8362000221565b9250827fffffffffffffffffffffffffffffffffffffffffffffffffffffffffffffffff0382111562000216576200021562000299565b5b828201905092915050565b6000819050919050565b60005b838110156200024b5780820151818401526020810190506200022e565b838111156200025b576000848401525b50505050565b60006200026e8262000221565b91506200027b8362000221565b9250826200028e576200028d620002c8565b5b828206905092915050565b7f4e487b7100000000000000000000000000000000000000000000000000000000600052601160045260246000fd5b7f4e487b7100000000000000000000000000000000000000000000000000000000600052601260045260246000fd5b6000601f19601f8301169050919050565b6119fb80620003186000396000f3fe608060405234801561001057600080fd5b50600436106100935760003560e01c806396324bd41161006657806396324bd414610124578063a42a466314610156578063dc2ddcae14610186578063e57ca8b8146101a2578063ff56899e146101be57610093565b806321cd3cae1461009857806350872a9f146100b65780636c2c4938146100e857806388535d6714610106575b600080fd5b6100a06101ee565b6040516100ad91906113a4565b60405180910390f35b6100d060048036038101906100cb919061104c565b6103a0565b6040516100df93929190611366565b60405180910390f35b6100f061048f565b6040516100fd91906114ef565b60405180910390f35b61010e610495565b60405161011b91906114ef565b60405180910390f35b61013e60048036038101906101399190611023565b61049b565b60405161014d9392919061153a565b60405180910390f35b610170600480360381019061016b9190610f65565b61054d565b60405161017d91906114ef565b60405180910390f35b6101a0600480360381019061019b9190610f8e565b610565565b005b6101bc60048036038101906101b79190610fcf565b61065c565b005b6101d860048036038101906101d39190611023565b610a12565b6040516101e591906113c6565b60405180910390f35b6060600060015467ffffffffffffffff811115610234577f4e487b7100000000000000000000000000000000000000000000000000000000600052604160045260246000fd5b60405190808252806020026020018201604052801561026d57816020015b61025a610e0f565b8152602001906001900390816102525790505b50905060005b6001548110156103985760036000828152602001908152602001600020604051806060016040529081600082015481526020016001820180546102b59061174c565b80601f01602080910402602001604051908101604052809291908181526020018280546102e19061174c565b801561032e5780601f106103035761010080835404028352916020019161032e565b820191906000526020600020905b81548152906001019060200180831161031157829003601f168201915b5050505050815260200160028201548152505082828151811061037a577f4e487b7100000000000000000000000000000000000000000000000000000000600052603260045260246000fd5b60200260200101819052508080610390906117af565b915050610273565b508091505090565b600460205281600052604060002081815481106103bc57600080fd5b9060005260206000209060030201600091509150508060000160009054906101000a900473ffffffffffffffffffffffffffffffffffffffff16908060010180546104069061174c565b80601f01602080910402602001604051908101604052809291908181526020018280546104329061174c565b801561047f5780601f106104545761010080835404028352916020019161047f565b820191906000526020600020905b81548152906001019060200180831161046257829003601f168201915b5050505050908060020154905083565b60025481565b60015481565b60036020528060005260406000206000915090508060000154908060010180546104c49061174c565b80601f01602080910402602001604051908101604052809291908181526020018280546104f09061174c565b801561053d5780601f106105125761010080835404028352916020019161053d565b820191906000526020600020905b81548152906001019060200180831161052057829003601f168201915b5050505050908060020154905083565b60056020528060005260406000206000915090505481565b6000600360006001548152602001908152602001600020905081816001019080519060200190610596929190610e30565b5060015481600001819055504281600201819055506105ec6040518060400160405280600f81526020017f47726f757020616d6f756e742025640000000000000000000000000000000000815250600154610c0f565b3373ffffffffffffffffffffffffffffffffffffffff167f280ef5f02ee276dc1738de5e4a47b56ef01a6629d7601c21bd2af94e9cd2498b42846001546040516106389392919061153a565b60405180910390a260016000815480929190610653906117af565b91905055505050565b61069c6040518060400160405280601681526020017f257320776176656420772f206d657373616765202573000000000000000000008152503384610cab565b6004600082815260200190815260200160002060405180606001604052803373ffffffffffffffffffffffffffffffffffffffff16815260200184815260200142815250908060018154018082558091505060019003906000526020600020906003020160009091909190915060008201518160000160006101000a81548173ffffffffffffffffffffffffffffffffffffffff021916908373ffffffffffffffffffffffffffffffffffffffff160217905550602082015181600101908051906020019061076c929190610e30565b506040820151816002015550506002600081548092919061078c906117af565b91905055506064444261079f9190611678565b6107a991906117f8565b6000819055506107f06040518060400160405280601681526020017f52616e646f6d20232067656e6572617465643a20256400000000000000000000815250600054610c0f565b6000655af3107a4000905060326000541161088c576108446040518060400160405280600781526020017f257320776f6e210000000000000000000000000000000000000000000000000081525033610d4a565b47811115610887576040517f08c379a000000000000000000000000000000000000000000000000000000000815260040161087e906114af565b60405180910390fd5b6108cc565b6108cb6040518060400160405280600f81526020017f257320646964206e6f742077696e2e000000000000000000000000000000000081525033610d4a565b5b813373ffffffffffffffffffffffffffffffffffffffff167feaa37612842e18c7920ab1b09b7c334c918c0bc7e405ebdfe3659e19071a4e95428660405161091592919061150a565b60405180910390a347811115610960576040517f08c379a0000000000000000000000000000000000000000000000000000000008152600401610957906114af565b60405180910390fd5b60003373ffffffffffffffffffffffffffffffffffffffff168260405161098690611351565b60006040518083038185875af1925050503d80600081146109c3576040519150601f19603f3d011682016040523d82523d6000602084013e6109c8565b606091505b5050905080610a0c576040517f08c379a0000000000000000000000000000000000000000000000000000000008152600401610a03906114cf565b60405180910390fd5b50505050565b606060046000838152602001908152602001600020805480602002602001604051908101604052809291908181526020016000905b82821015610b6b57838290600052602060002090600302016040518060600160405290816000820160009054906101000a900473ffffffffffffffffffffffffffffffffffffffff1673ffffffffffffffffffffffffffffffffffffffff1673ffffffffffffffffffffffffffffffffffffffff168152602001600182018054610ad09061174c565b80601f0160208091040260200160405190810160405280929190818152602001828054610afc9061174c565b8015610b495780601f10610b1e57610100808354040283529160200191610b49565b820191906000526020600020905b815481529060010190602001808311610b2c57829003601f168201915b5050505050815260200160028201548152505081526020019060010190610a47565b505050509050919050565b610c0c81604051602401610b8a91906113e8565b6040516020818303038152906040527f41304fac000000000000000000000000000000000000000000000000000000007bffffffffffffffffffffffffffffffffffffffffffffffffffffffff19166020820180517bffffffffffffffffffffffffffffffffffffffffffffffffffffffff8381831617835250505050610de6565b50565b610ca78282604051602401610c2592919061147f565b6040516020818303038152906040527f9710a9d0000000000000000000000000000000000000000000000000000000007bffffffffffffffffffffffffffffffffffffffffffffffffffffffff19166020820180517bffffffffffffffffffffffffffffffffffffffffffffffffffffffff8381831617835250505050610de6565b5050565b610d45838383604051602401610cc39392919061143a565b6040516020818303038152906040527fe0e9ad4f000000000000000000000000000000000000000000000000000000007bffffffffffffffffffffffffffffffffffffffffffffffffffffffff19166020820180517bffffffffffffffffffffffffffffffffffffffffffffffffffffffff8381831617835250505050610de6565b505050565b610de28282604051602401610d6092919061140a565b6040516020818303038152906040527f319af333000000000000000000000000000000000000000000000000000000007bffffffffffffffffffffffffffffffffffffffffffffffffffffffff19166020820180517bffffffffffffffffffffffffffffffffffffffffffffffffffffffff8381831617835250505050610de6565b5050565b60008151905060006a636f6e736f6c652e6c6f679050602083016000808483855afa5050505050565b60405180606001604052806000815260200160608152602001600081525090565b828054610e3c9061174c565b90600052602060002090601f016020900481019282610e5e5760008555610ea5565b82601f10610e7757805160ff1916838001178555610ea5565b82800160010185558215610ea5579182015b82811115610ea4578251825591602001919060010190610e89565b5b509050610eb29190610eb6565b5090565b5b80821115610ecf576000816000905550600101610eb7565b5090565b6000610ee6610ee18461159d565b611578565b905082815260208101848484011115610efe57600080fd5b610f0984828561170a565b509392505050565b600081359050610f2081611997565b92915050565b600082601f830112610f3757600080fd5b8135610f47848260208601610ed3565b91505092915050565b600081359050610f5f816119ae565b92915050565b600060208284031215610f7757600080fd5b6000610f8584828501610f11565b91505092915050565b600060208284031215610fa057600080fd5b600082013567ffffffffffffffff811115610fba57600080fd5b610fc684828501610f26565b91505092915050565b60008060408385031215610fe257600080fd5b600083013567ffffffffffffffff811115610ffc57600080fd5b61100885828601610f26565b925050602061101985828601610f50565b9150509250929050565b60006020828403121561103557600080fd5b600061104384828501610f50565b91505092915050565b6000806040838503121561105f57600080fd5b600061106d85828601610f50565b925050602061107e85828601610f50565b9150509250929050565b60006110948383611293565b905092915050565b60006110a883836112e3565b905092915050565b6110b9816116ce565b82525050565b6110c8816116ce565b82525050565b60006110d9826115ee565b6110e38185611629565b9350836020820285016110f5856115ce565b8060005b8581101561113157848403895281516111128582611088565b945061111d8361160f565b925060208a019950506001810190506110f9565b50829750879550505050505092915050565b600061114e826115f9565b611158818561163a565b93508360208202850161116a856115de565b8060005b858110156111a65784840389528151611187858261109c565b94506111928361161c565b925060208a0199505060018101905061116e565b50829750879550505050505092915050565b60006111c382611604565b6111cd8185611656565b93506111dd818560208601611719565b6111e6816118e5565b840191505092915050565b60006111fc82611604565b6112068185611667565b9350611216818560208601611719565b61121f816118e5565b840191505092915050565b6000611237603483611667565b9150611242826118f6565b604082019050919050565b600061125a602783611667565b915061126582611945565b604082019050919050565b600061127d60008361164b565b915061128882611994565b600082019050919050565b60006060830160008301516112ab6000860182611333565b50602083015184820360208601526112c382826111b8565b91505060408301516112d86040860182611333565b508091505092915050565b60006060830160008301516112fb60008601826110b0565b506020830151848203602086015261131382826111b8565b91505060408301516113286040860182611333565b508091505092915050565b61133c81611700565b82525050565b61134b81611700565b82525050565b600061135c82611270565b9150819050919050565b600060608201905061137b60008301866110bf565b818103602083015261138d81856111f1565b905061139c6040830184611342565b949350505050565b600060208201905081810360008301526113be81846110ce565b905092915050565b600060208201905081810360008301526113e08184611143565b905092915050565b6000602082019050818103600083015261140281846111f1565b905092915050565b6000604082019050818103600083015261142481856111f1565b905061143360208301846110bf565b9392505050565b6000606082019050818103600083015261145481866111f1565b905061146360208301856110bf565b818103604083015261147581846111f1565b9050949350505050565b6000604082019050818103600083015261149981856111f1565b90506114a86020830184611342565b9392505050565b600060208201905081810360008301526114c88161122a565b9050919050565b600060208201905081810360008301526114e88161124d565b9050919050565b60006020820190506115046000830184611342565b92915050565b600060408201905061151f6000830185611342565b818103602083015261153181846111f1565b90509392505050565b600060608201905061154f6000830186611342565b818103602083015261156181856111f1565b90506115706040830184611342565b949350505050565b6000611582611593565b905061158e828261177e565b919050565b6000604051905090565b600067ffffffffffffffff8211156115b8576115b76118b6565b5b6115c1826118e5565b9050602081019050919050565b6000819050602082019050919050565b6000819050602082019050919050565b600081519050919050565b600081519050919050565b600081519050919050565b6000602082019050919050565b6000602082019050919050565b600082825260208201905092915050565b600082825260208201905092915050565b600081905092915050565b600082825260208201905092915050565b600082825260208201905092915050565b600061168382611700565b915061168e83611700565b9250827fffffffffffffffffffffffffffffffffffffffffffffffffffffffffffffffff038211156116c3576116c2611829565b5b828201905092915050565b60006116d9826116e0565b9050919050565b600073ffffffffffffffffffffffffffffffffffffffff82169050919050565b6000819050919050565b82818337600083830152505050565b60005b8381101561173757808201518184015260208101905061171c565b83811115611746576000848401525b50505050565b6000600282049050600182168061176457607f821691505b6020821081141561177857611777611887565b5b50919050565b611787826118e5565b810181811067ffffffffffffffff821117156117a6576117a56118b6565b5b80604052505050565b60006117ba82611700565b91507fffffffffffffffffffffffffffffffffffffffffffffffffffffffffffffffff8214156117ed576117ec611829565b5b600182019050919050565b600061180382611700565b915061180e83611700565b92508261181e5761181d611858565b5b828206905092915050565b7f4e487b7100000000000000000000000000000000000000000000000000000000600052601160045260246000fd5b7f4e487b7100000000000000000000000000000000000000000000000000000000600052601260045260246000fd5b7f4e487b7100000000000000000000000000000000000000000000000000000000600052602260045260246000fd5b7f4e487b7100000000000000000000000000000000000000000000000000000000600052604160045260246000fd5b6000601f19601f8301169050919050565b7f547279696e6720746f207769746864726177206d6f7265206d6f6e657920746860008201527f616e2074686520636f6e7472616374206861732e000000000000000000000000602082015250565b7f4661696c656420746f207769746864726177206d6f6e65792066726f6d20636f60008201527f6e74726163742e00000000000000000000000000000000000000000000000000602082015250565b50565b6119a0816116ce565b81146119ab57600080fd5b50565b6119b781611700565b81146119c257600080fd5b5056fea2646970667358221220af7e017568b83cf9716dad4850382195861027d019cf46e29904d4994f4eaac864736f6c63430008040033",
  "linkReferences": {},
  "deployedLinkReferences": {}
}